:0A0000000C942F000C9400000C94E7
:10000A0000000C9400000C9400000C9400000C9466
:10001A0000000C9400000C9400000C9400000C9456
:10002A0000000C9400000C9400000C9400000C9446
:10003A0000000C9400000C9400000C9400000C9436
:10004A0000000C9400000C9400000000010302065A
:10005A00040C0809F894EE27ECBBF1E0FBBFEBBFF8
:10006A00E5BF8DE0A2E0BB27ED938A95E9F780E032
:10007A0094E0A0E6ED930197E9F7EFE5EDBFE4E040
:10008A00EEBFC0E6D1E00C944A002A978AE0A0E0CD
:10009A00B0E0E4E5F0E00E94CE0020E030E041E08C
:1000AA0050E0EFE0E4BBE0E0E5BBEFEFE7BBE0E008
:1000BA00E1BBEFEFEABB00240416050621F4A88190
:1000CA00B981119709F013C000E010E00830E0E0B0
:1000DA001E076CF442D0819B4AD0E7E0F0E0E017BB
:1000EA00F10711F42F5F3F4F0F5F1F4FEFCFE1E092
:1000FA00F0E0E417F50721F400240216030609F4D8
:10010A000FC007E010E011235AF027D0819B2FD0AF
:10011A00002E012A11F42150304001501040F3CF33
:10012A0028BBE7E0F0E0E217F30711F441E050E002
:10013A00022E032A11F440E050E080990CC040E0FE
:10014A0050E0D89AD998E1E0F0E0E883F983A8EE84
:10015A00B3E00E94C400AFCFFFCFDE011296A00F1A
:10016A00B11FEC91E5BBA4E6B0E00C94C40041E0F9
:10017A0050E0E0E0E883E983D898D99A0895109688
:10018A0039F08AEF90E00197F1F7A8951197C9F72E
:10019A000895AC0FBD1F05900D928A95E1F7089559
:00000001FF
