:0A0000000C944A000C9400000C94CC
:10000A0000000C9400000C9400000C9400000C9466
:10001A0000000C9400000C9400000C9400000C9456
:10002A0000000C9400000C9400000C9400000C9446
:10003A0000000C9400000C9400000C9400000C9436
:10004A0000000C9400000C9400001027E8036400E0
:10005A000A00010000100001100001000000000069
:10006A0001030206040C0809256400526F756E64C8
:10007A003A00300080C00700600175000200670185
:10008A007C00020069017E000000F894EE27ECBBB8
:10009A00F1E0FBBFEBBFE5BF8DE0A2E0BB27ED932C
:1000AA008A95E9F780E094E0A0E6ED930197E9F7F5
:1000BA00E0E8F0E085919591009761F0A591B591FE
:1000CA0005901590BF01F00105900D920197E1F797
:1000DA00FB01F0CFEFE5EDBFE4E0EEBFC0E6D1E013
:1000EA000C9477006C978CE0A0E1B0E0E6E6F0E0D3
:1000FA000E943E0420E030E041E050E0E3E0EABB49
:10010A00E0E0EBBBEFEFE7BBE0E0E8BBEFE0E4BB2E
:10011A00E0E0E5BBE1BBE3BFE2BFECBFEFBDEEBD94
:10012A00EDBDECBDE7BDE6BDEBBDEABDE9BDE8BD91
:10013A00E2BDE5BDE4BDE3BDE9BFE5BFE4BFEAB9A1
:10014A00E0E8E8B9E0E0E0BFE6B9EDB9E6BFA0E172
:10015A0016D1FE01FA93EA93E2E7F0E0FA93EA9302
:10016A00EC89FD890E941A040E94270484E00E94F7
:10017A0065032896E0E0EA93A0E0C2D0A0E6B1E0E9
:10018A00EDD0A889B9891A971CF4A7E6B1E0E6D0A0
:10019A00DE01E4D0EA89FB89309719F4D898D99A14
:1001AA00A89A00240416050639F4AA89BB8911976E
:1001BA0019F40E94B2030CF01CC000E010E00830F1
:1001CA00E0E01E07B4F40E94B703819B02C00E94BC
:1001DA00C103E889F989309711F40E94C103E7E065
:1001EA00F0E0E017F10711F42F5F3F4F0F5F1F4F49
:1001FA00E6CFE1E0F0E0E417F50721F40024021667
:10020A00030609F420C007E010E01123E2F00E947F
:10021A00B703819B02C00E94C103E889F98930971C
:10022A0011F40E94C103002E012A11F4215030401A
:10023A00022E032A29F4E889F9893197E88BF98B88
:10024A0001501040E2CFE4E0F0E0E217F30711F4C6
:10025A0041E050E0022E032A11F440E050E0809B76
:10026A0003C00E94B2030CF008C040E050E0D89AE4
:10027A00D998E1E0F0E0EA8BFB8B829B04C0AA8963
:10028A00BB89109709F005C0E889F98931960E945F
:10029A00C903839B07C0AA89BB89109719F40E94D6
:1002AA00B2030CF005C0E889F98931970E94C903A5
:1002BA00E889F989309711F40E94C1034ACFFFCF28
:1002CA00AA93E8B3EF70AE2FE881E07FEA2BE8BB90
:1002DA0082E08A95F1F7C29A82E08A95F1F7C2988C
:1002EA0082E08A95F1F776C0AA93A881E9DFE881CE
:1002FA00E295E883A881E4DF81E18A95F1F76AC093
:10030A00AA93E881F0E0E759FE4FE081A981AE0F98
:10031A00EBDF5980488022960895A2E00E94CF031D
:10032A00ACE0E2DFA1E00E94CF03E0E04E2E5E2EB9
:10033A000895AA93A881AA3011F0571448F0E0E072
:10034A00EA934394A42DDCDFA881AA3009F442C0C1
:10035A005394C09AA881C8DFC0983CC0BA93AA93A4
:10036A001A93A981BA81ED91A983BA831E2FE0302D
:10037A0019F0A12FDEDFF5CF188123960895AA93ED
:10038A00E7B3E06FE7BBBA9AB89AB99AC298C0982D
:10039A00C1987880E881E058E0936B01E881E054E5
:1003AA00E0936C01A4E1B0E00E9408040E94D50326
:1003BA000E94D5030E94D503A0E282DF81E28A95DA
:1003CA00F1F7A8E291DFA4E08FDFA5E88DDFA6E0D0
:1003DA008BDFA3DF21960895BA93AA931A930A93FF
:1003EA00AA81BB8112960E941F04309759F1AA81F3
:1003FA00BB8114960E941F048F01309761F002306E
:10040A00E0E01E0798F0F80131978F01AA81BB81BD
:10041A001496ED93FC93AA81BB811296ED91FD91FE
:10042A003196FE93EE933197AC81A083AA81BB816A
:10043A000E941F04FF232AF0ED91FD913196FE934D
:10044A00EE9306C0AA81BB81EFEFFFEFED93FC9319
:10045A001981088125960895BA93AA9326970E942E
:10046A00300410E0AC85BD85E0E0F0E0ED93FC934C
:10047A00EA89FB893196EA8BFB8B3197E4912E2F1F
:10048A00E03009F415C1E12FE03039F4253211F4D6
:10049A0011E002C00E94DC030AC1E130A9F425324E
:1004AA0019F40E94DC0302C112E040E000E02D32A0
:1004BA0011F401E0FCC02B3211F44BE2F8C02032F7
:1004CA0011F440E2F4C002C0E23039F450E013E023
:1004DA00203311F40068EBC003C0E33009F0E7C031
:1004EA00203310F02A3308F007C0AAE05A9F502D93
:1004FA00E22FE0535E0FDBC0E22FE33649F40E949D
:10050A00E303E889F989A481AA930E94E903CEC08A
:10051A00E33741F40E94E3030E94EF030E94990328
:10052A001E2F0AC0E03761F40E94E3030E94EF0322
:10053A000E94A5031E2F086002600F7730E034C0C6
:10054A00E43611F0E93611F4046002C0E53731F4FB
:10055A00E4E5F0E0EE83FF8315E00CC0E83511F422
:10056A00086003C0E83709F0A1C0EEE5F0E0EE83C9
:10057A00FF8314E002FF14C00E94E3030E94F90300
:10058A00AB85AA233AF4EA85FB850E941604EA871A
:10059A00FB874DE2403011F01F5F01C00B7F04C0A2
:1005AA000E94E3030E94F90300FD11C0151778F4B5
:1005BA0007FF08C002FF04C00B7F242F115001C09F
:1005CA0020E301C020E20E94DC035150EFCF312F1B
:1005DA0001FF17C03030A1F003FF06C0EE81FF8192
:1005EA002591EE83FF8305C0AE81BF812D91AE8335
:1005FA00BF830E94DC03503009F051503150EACFDA
:10060A004BC020E3EE81FF810E942304E887F9872B
:10061A00EE81FF813296EE83FF83E885F985AA850C
:10062A00BB85AE17BF0750F02F5FA885B985EA854D
:10063A00FB85EA1BFB0BEA87FB87EFCF2A3328F0FF
:10064A0003FF02C0295F01C0295D04FD1AC02133DE
:10065A0020F4A885B985119709F409C0531710F039
:10066A0000FF01C013C020E207FF0BC020E30061B6
:10067A0002FF07C00B7F4A930E94E903503009F03A
:10068A0051500E94DC03503009F051503150A88576
:10069A00B985129708F0B5CF00FF08C0503031F085
:1006AA005150E0E2EA930E94E903F8CF10E0E0CE6D
:1006BA00AC85BD850E941F040E9437046496089584
:1006CA00FF92F82E26970E9432040E940104309766
:1006DA0019F4EFEFFFEF23C0DE0116960E94120411
:1006EA008D010E940104EE83FF83E0E0E887E98739
:1006FA00DE011A960E9412040E941F04FA93EA93DA
:10070A001A930A93E1EFF1E0FA93EA93DE011A965B
:10071A00A3DE9F01AE81BF81E0E0EC93F9010E9464
:10072A0039042A96FF900895BA93AA93A991B99188
:10073A00EE27FF276D91662311F03196FBCF0895BE
:10074A00BA93AA93AA27BB27E991F99105900020A9
:10075A0011F01196FBCFFD010895A889B9890E946D
:10076A002C040895DE015496A00FB11FEC91E5BB4D
:10077A00A4E6B0E00C94080441E050E0E0E0EA8B23
:10078A00EB8BD898D99A0895E88BF98BACE2B1E053
:10079A000C9408040E947901A3E0B0E00C940804C8
:1007AA00A0E30E94650181E28A95F1F708952A93F0
:1007BA00AD85BE85EF85F88909950895E889F98997
:1007CA003497E88BF98B0895AD85BE85EF85F88956
:1007DA0009950895A889B98914960E941F04EE8381
:1007EA00FF83AE81BF810895A889B98914960E94B2
:1007FA001F04EA87FB870895DE011C960E941204F3
:10080A000E941F040895109639F08AEF90E001972C
:10081A00F1F7A8951197C9F708950024AF0DB01DF7
:10082A000895F195E195F04008956F2F660F660BD4
:10083A00762F0895ED91FC91119708950590F49102
:10084A00E02D08957A936A93FA93EA93089500241F
:10085A000A160B0608955A934A933A932A931A93BF
:10086A000A9308955D814C813B812A81198108810F
:10087A000895AC0FBD1F05900D928A95E1F7089572
:00000001FF
