:100000000C942A000C9400000C9400000C94000046
:100010000C9400000C9400000C9400000C94000060
:100020000C9400000C9400000C9400000C94000050
:100030000C9400000C9400000C9400000C94000040
:100040000C9400000C9400000C9400000C94000030
:100050000C940000F894EE27ECBBF1E0FBBFEBBF83
:10006000E5BF8DE0A2E0BB27ED938A95E9F780E03C
:1000700094E0A0E6ED930197E9F7EFE5EDBFE4E04A
:10008000EEBFC0E6D1E00C944500E0E1E1BBE0E06A
:10009000E2BBE3E2EFBDE9E1EEBDE0E0EDBDECBDCA
:1000A000E7BDE6BDE0E2FEE4FBBDEABDE0E9F1E06C
:1000B000F9BDE8BD00E911E00136E9E01E0724F4CE
:1000C0000FD00F5F1F4FF8CF00E619E00039E1E0D5
:1000D0001E0724F005D001501040F8CFEBCFFFCF22
:1000E00019BD08BDA2E0B0E00C947600109639F07E
:1000F00080ED97E00197F1F7A8951197C9F708955A
:00000001FF
